{
  "_format": "hh-sol-artifact-1",
  "contractName": "Shplub",
  "sourceName": "contracts/Shplub.sol",
  "abi": [
    {
      "inputs": [
        {
          "internalType": "uint256",
          "name": "maxBatchSize_",
          "type": "uint256"
        },
        {
          "internalType": "uint256",
          "name": "collectionSize_",
          "type": "uint256"
        },
        {
          "internalType": "uint256",
          "name": "reservedAmount_",
          "type": "uint256"
        }
      ],
      "stateMutability": "nonpayable",
      "type": "constructor"
    },
    {
      "anonymous": false,
      "inputs": [
        {
          "indexed": true,
          "internalType": "address",
          "name": "owner",
          "type": "address"
        },
        {
          "indexed": true,
          "internalType": "address",
          "name": "approved",
          "type": "address"
        },
        {
          "indexed": true,
          "internalType": "uint256",
          "name": "tokenId",
          "type": "uint256"
        }
      ],
      "name": "Approval",
      "type": "event"
    },
    {
      "anonymous": false,
      "inputs": [
        {
          "indexed": true,
          "internalType": "address",
          "name": "owner",
          "type": "address"
        },
        {
          "indexed": true,
          "internalType": "address",
          "name": "operator",
          "type": "address"
        },
        {
          "indexed": false,
          "internalType": "bool",
          "name": "approved",
          "type": "bool"
        }
      ],
      "name": "ApprovalForAll",
      "type": "event"
    },
    {
      "anonymous": false,
      "inputs": [
        {
          "indexed": true,
          "internalType": "address",
          "name": "previousOwner",
          "type": "address"
        },
        {
          "indexed": true,
          "internalType": "address",
          "name": "newOwner",
          "type": "address"
        }
      ],
      "name": "OwnershipTransferred",
      "type": "event"
    },
    {
      "anonymous": false,
      "inputs": [
        {
          "indexed": true,
          "internalType": "address",
          "name": "from",
          "type": "address"
        },
        {
          "indexed": true,
          "internalType": "address",
          "name": "to",
          "type": "address"
        },
        {
          "indexed": true,
          "internalType": "uint256",
          "name": "tokenId",
          "type": "uint256"
        }
      ],
      "name": "Transfer",
      "type": "event"
    },
    {
      "inputs": [
        {
          "internalType": "address",
          "name": "",
          "type": "address"
        }
      ],
      "name": "allowlist",
      "outputs": [
        {
          "internalType": "uint256",
          "name": "",
          "type": "uint256"
        }
      ],
      "stateMutability": "view",
      "type": "function"
    },
    {
      "inputs": [],
      "name": "allowlistMint",
      "outputs": [],
      "stateMutability": "payable",
      "type": "function"
    },
    {
      "inputs": [
        {
          "internalType": "address",
          "name": "to",
          "type": "address"
        },
        {
          "internalType": "uint256",
          "name": "tokenId",
          "type": "uint256"
        }
      ],
      "name": "approve",
      "outputs": [],
      "stateMutability": "nonpayable",
      "type": "function"
    },
    {
      "inputs": [
        {
          "internalType": "address",
          "name": "owner",
          "type": "address"
        }
      ],
      "name": "balanceOf",
      "outputs": [
        {
          "internalType": "uint256",
          "name": "",
          "type": "uint256"
        }
      ],
      "stateMutability": "view",
      "type": "function"
    },
    {
      "inputs": [
        {
          "internalType": "uint256",
          "name": "quantity",
          "type": "uint256"
        }
      ],
      "name": "devMint",
      "outputs": [],
      "stateMutability": "nonpayable",
      "type": "function"
    },
    {
      "inputs": [
        {
          "internalType": "uint256",
          "name": "tokenId",
          "type": "uint256"
        }
      ],
      "name": "getApproved",
      "outputs": [
        {
          "internalType": "address",
          "name": "",
          "type": "address"
        }
      ],
      "stateMutability": "view",
      "type": "function"
    },
    {
      "inputs": [
        {
          "internalType": "address",
          "name": "owner",
          "type": "address"
        },
        {
          "internalType": "address",
          "name": "operator",
          "type": "address"
        }
      ],
      "name": "isApprovedForAll",
      "outputs": [
        {
          "internalType": "bool",
          "name": "",
          "type": "bool"
        }
      ],
      "stateMutability": "view",
      "type": "function"
    },
    {
      "inputs": [],
      "name": "maxPerAddressDuringMint",
      "outputs": [
        {
          "internalType": "uint256",
          "name": "",
          "type": "uint256"
        }
      ],
      "stateMutability": "view",
      "type": "function"
    },
    {
      "inputs": [],
      "name": "name",
      "outputs": [
        {
          "internalType": "string",
          "name": "",
          "type": "string"
        }
      ],
      "stateMutability": "view",
      "type": "function"
    },
    {
      "inputs": [],
      "name": "nextOwnerToExplicitlySet",
      "outputs": [
        {
          "internalType": "uint256",
          "name": "",
          "type": "uint256"
        }
      ],
      "stateMutability": "view",
      "type": "function"
    },
    {
      "inputs": [],
      "name": "owner",
      "outputs": [
        {
          "internalType": "address",
          "name": "",
          "type": "address"
        }
      ],
      "stateMutability": "view",
      "type": "function"
    },
    {
      "inputs": [
        {
          "internalType": "uint256",
          "name": "tokenId",
          "type": "uint256"
        }
      ],
      "name": "ownerOf",
      "outputs": [
        {
          "internalType": "address",
          "name": "",
          "type": "address"
        }
      ],
      "stateMutability": "view",
      "type": "function"
    },
    {
      "inputs": [
        {
          "internalType": "uint256",
          "name": "quantity",
          "type": "uint256"
        }
      ],
      "name": "publicMint",
      "outputs": [],
      "stateMutability": "nonpayable",
      "type": "function"
    },
    {
      "inputs": [],
      "name": "renounceOwnership",
      "outputs": [],
      "stateMutability": "nonpayable",
      "type": "function"
    },
    {
      "inputs": [],
      "name": "reservedAmount",
      "outputs": [
        {
          "internalType": "uint256",
          "name": "",
          "type": "uint256"
        }
      ],
      "stateMutability": "view",
      "type": "function"
    },
    {
      "inputs": [
        {
          "internalType": "address",
          "name": "from",
          "type": "address"
        },
        {
          "internalType": "address",
          "name": "to",
          "type": "address"
        },
        {
          "internalType": "uint256",
          "name": "tokenId",
          "type": "uint256"
        }
      ],
      "name": "safeTransferFrom",
      "outputs": [],
      "stateMutability": "nonpayable",
      "type": "function"
    },
    {
      "inputs": [
        {
          "internalType": "address",
          "name": "from",
          "type": "address"
        },
        {
          "internalType": "address",
          "name": "to",
          "type": "address"
        },
        {
          "internalType": "uint256",
          "name": "tokenId",
          "type": "uint256"
        },
        {
          "internalType": "bytes",
          "name": "_data",
          "type": "bytes"
        }
      ],
      "name": "safeTransferFrom",
      "outputs": [],
      "stateMutability": "nonpayable",
      "type": "function"
    },
    {
      "inputs": [],
      "name": "saleConfig",
      "outputs": [
        {
          "internalType": "uint32",
          "name": "auctionSaleStartTime",
          "type": "uint32"
        },
        {
          "internalType": "uint32",
          "name": "publicSaleStartTime",
          "type": "uint32"
        },
        {
          "internalType": "uint64",
          "name": "mintlistPrice",
          "type": "uint64"
        },
        {
          "internalType": "uint64",
          "name": "publicPrice",
          "type": "uint64"
        },
        {
          "internalType": "uint32",
          "name": "publicSaleKey",
          "type": "uint32"
        }
      ],
      "stateMutability": "view",
      "type": "function"
    },
    {
      "inputs": [
        {
          "internalType": "address[]",
          "name": "addresses",
          "type": "address[]"
        },
        {
          "internalType": "uint256[]",
          "name": "numSlots",
          "type": "uint256[]"
        }
      ],
      "name": "seedAllowlist",
      "outputs": [],
      "stateMutability": "nonpayable",
      "type": "function"
    },
    {
      "inputs": [
        {
          "internalType": "address",
          "name": "operator",
          "type": "address"
        },
        {
          "internalType": "bool",
          "name": "approved",
          "type": "bool"
        }
      ],
      "name": "setApprovalForAll",
      "outputs": [],
      "stateMutability": "nonpayable",
      "type": "function"
    },
    {
      "inputs": [
        {
          "internalType": "string",
          "name": "baseURI",
          "type": "string"
        }
      ],
      "name": "setBaseURI",
      "outputs": [],
      "stateMutability": "nonpayable",
      "type": "function"
    },
    {
      "inputs": [
        {
          "internalType": "bytes4",
          "name": "interfaceId",
          "type": "bytes4"
        }
      ],
      "name": "supportsInterface",
      "outputs": [
        {
          "internalType": "bool",
          "name": "",
          "type": "bool"
        }
      ],
      "stateMutability": "view",
      "type": "function"
    },
    {
      "inputs": [],
      "name": "symbol",
      "outputs": [
        {
          "internalType": "string",
          "name": "",
          "type": "string"
        }
      ],
      "stateMutability": "view",
      "type": "function"
    },
    {
      "inputs": [
        {
          "internalType": "uint256",
          "name": "index",
          "type": "uint256"
        }
      ],
      "name": "tokenByIndex",
      "outputs": [
        {
          "internalType": "uint256",
          "name": "",
          "type": "uint256"
        }
      ],
      "stateMutability": "view",
      "type": "function"
    },
    {
      "inputs": [
        {
          "internalType": "address",
          "name": "owner",
          "type": "address"
        },
        {
          "internalType": "uint256",
          "name": "index",
          "type": "uint256"
        }
      ],
      "name": "tokenOfOwnerByIndex",
      "outputs": [
        {
          "internalType": "uint256",
          "name": "",
          "type": "uint256"
        }
      ],
      "stateMutability": "view",
      "type": "function"
    },
    {
      "inputs": [
        {
          "internalType": "uint256",
          "name": "tokenId",
          "type": "uint256"
        }
      ],
      "name": "tokenURI",
      "outputs": [
        {
          "internalType": "string",
          "name": "",
          "type": "string"
        }
      ],
      "stateMutability": "view",
      "type": "function"
    },
    {
      "inputs": [],
      "name": "totalSupply",
      "outputs": [
        {
          "internalType": "uint256",
          "name": "",
          "type": "uint256"
        }
      ],
      "stateMutability": "view",
      "type": "function"
    },
    {
      "inputs": [
        {
          "internalType": "address",
          "name": "from",
          "type": "address"
        },
        {
          "internalType": "address",
          "name": "to",
          "type": "address"
        },
        {
          "internalType": "uint256",
          "name": "tokenId",
          "type": "uint256"
        }
      ],
      "name": "transferFrom",
      "outputs": [],
      "stateMutability": "nonpayable",
      "type": "function"
    },
    {
      "inputs": [
        {
          "internalType": "address",
          "name": "newOwner",
          "type": "address"
        }
      ],
      "name": "transferOwnership",
      "outputs": [],
      "stateMutability": "nonpayable",
      "type": "function"
    },
    {
      "inputs": [],
      "name": "withdrawMoney",
      "outputs": [],
      "stateMutability": "nonpayable",
      "type": "function"
    }
  ],
  "bytecode": "0x6101006040526000805560006007553480156200001b57600080fd5b50604051620054e7380380620054e7833981810160405281019062000041919062000357565b6040518060400160405280600681526020017f7368706c756200000000000000000000000000000000000000000000000000008152506040518060400160405280600681526020017f5368706c75620000000000000000000000000000000000000000000000000000815250848460008111620000f5576040517f08c379a0000000000000000000000000000000000000000000000000000000008152600401620000ec906200041d565b60405180910390fd5b600082116200013b576040517f08c379a00000000000000000000000000000000000000000000000000000000081526004016200013290620003fb565b60405180910390fd5b83600190805190602001906200015392919062000290565b5082600290805190602001906200016c92919062000290565b508160a081815250508060808181525050505050506001600881905550620001a96200019d620001c260201b60201c565b620001ca60201b60201c565b8260c081815250508060e0818152505050505062000577565b600033905090565b6000600960009054906101000a900473ffffffffffffffffffffffffffffffffffffffff16905081600960006101000a81548173ffffffffffffffffffffffffffffffffffffffff021916908373ffffffffffffffffffffffffffffffffffffffff1602179055508173ffffffffffffffffffffffffffffffffffffffff168173ffffffffffffffffffffffffffffffffffffffff167f8be0079c531659141344cd1fd0a4f28419497f9722a3daafe3b4186f6b6457e060405160405180910390a35050565b8280546200029e906200045a565b90600052602060002090601f016020900481019282620002c257600085556200030e565b82601f10620002dd57805160ff19168380011785556200030e565b828001600101855582156200030e579182015b828111156200030d578251825591602001919060010190620002f0565b5b5090506200031d919062000321565b5090565b5b808211156200033c57600081600090555060010162000322565b5090565b60008151905062000351816200055d565b92915050565b6000806000606084860312156200036d57600080fd5b60006200037d8682870162000340565b9350506020620003908682870162000340565b9250506040620003a38682870162000340565b9150509250925092565b6000620003bc6027836200043f565b9150620003c982620004bf565b604082019050919050565b6000620003e3602e836200043f565b9150620003f0826200050e565b604082019050919050565b600060208201905081810360008301526200041681620003ad565b9050919050565b600060208201905081810360008301526200043881620003d4565b9050919050565b600082825260208201905092915050565b6000819050919050565b600060028204905060018216806200047357607f821691505b602082108114156200048a576200048962000490565b5b50919050565b7f4e487b7100000000000000000000000000000000000000000000000000000000600052602260045260246000fd5b7f455243373231413a206d61782062617463682073697a65206d7573742062652060008201527f6e6f6e7a65726f00000000000000000000000000000000000000000000000000602082015250565b7f455243373231413a20636f6c6c656374696f6e206d757374206861766520612060008201527f6e6f6e7a65726f20737570706c79000000000000000000000000000000000000602082015250565b620005688162000450565b81146200057457600080fd5b50565b60805160a05160c05160e051614efe620005e960003960008181610eb50152611d89015260006114d6015260008181610b7d01528181610f2c01528181610f9a01528181610fd7015281816125a3015281816125cc0152612cbb015260008181610b0801526111710152614efe6000f3fe6080604052600436106101cd5760003560e01c8063715018a6116100f7578063ac44600211610095578063d7224ba011610064578063d7224ba014610669578063e985e9c514610694578063f2fde38b146106d1578063f92c45b7146106fa576101cd565b8063ac446002146105c3578063b05863d5146105da578063b88d4fde14610603578063c87b56dd1461062c576101cd565b806390aa0b0f116100d157806390aa0b0f1461050357806395d89b4114610532578063a22cb4651461055d578063a7cd52cb14610586576101cd565b8063715018a6146104965780638bc35c2f146104ad5780638da5cb5b146104d8576101cd565b80632f745c591161016f5780634f6ccce71161013e5780634f6ccce7146103b657806355f804b3146103f35780636352211e1461041c57806370a0823114610459576101cd565b80632f745c591461031d578063375a069a1461035a57806341fbddbd1461038357806342842e0e1461038d576101cd565b8063095ea7b3116101ab578063095ea7b31461027757806318160ddd146102a057806323b872dd146102cb5780632db11544146102f4576101cd565b806301ffc9a7146101d257806306fdde031461020f578063081812fc1461023a575b600080fd5b3480156101de57600080fd5b506101f960048036038101906101f4919061365c565b610725565b6040516102069190613ce7565b60405180910390f35b34801561021b57600080fd5b5061022461086f565b6040516102319190613d02565b60405180910390f35b34801561024657600080fd5b50610261600480360381019061025c91906136f3565b610901565b60405161026e9190613c80565b60405180910390f35b34801561028357600080fd5b5061029e600480360381019061029991906135b4565b610986565b005b3480156102ac57600080fd5b506102b5610a9f565b6040516102c29190614114565b60405180910390f35b3480156102d757600080fd5b506102f260048036038101906102ed91906134ae565b610aa8565b005b34801561030057600080fd5b5061031b600480360381019061031691906136f3565b610ab8565b005b34801561032957600080fd5b50610344600480360381019061033f91906135b4565b610c39565b6040516103519190614114565b60405180910390f35b34801561036657600080fd5b50610381600480360381019061037c91906136f3565b610e37565b005b61038b611013565b005b34801561039957600080fd5b506103b460048036038101906103af91906134ae565b611248565b005b3480156103c257600080fd5b506103dd60048036038101906103d891906136f3565b611268565b6040516103ea9190614114565b60405180910390f35b3480156103ff57600080fd5b5061041a600480360381019061041591906136ae565b6112bb565b005b34801561042857600080fd5b50610443600480360381019061043e91906136f3565b61134d565b6040516104509190613c80565b60405180910390f35b34801561046557600080fd5b50610480600480360381019061047b9190613449565b611363565b60405161048d9190614114565b60405180910390f35b3480156104a257600080fd5b506104ab61144c565b005b3480156104b957600080fd5b506104c26114d4565b6040516104cf9190614114565b60405180910390f35b3480156104e457600080fd5b506104ed6114f8565b6040516104fa9190613c80565b60405180910390f35b34801561050f57600080fd5b50610518611522565b60405161052995949392919061412f565b60405180910390f35b34801561053e57600080fd5b5061054761159e565b6040516105549190613d02565b60405180910390f35b34801561056957600080fd5b50610584600480360381019061057f9190613578565b611630565b005b34801561059257600080fd5b506105ad60048036038101906105a89190613449565b6117b1565b6040516105ba9190614114565b60405180910390f35b3480156105cf57600080fd5b506105d86117c9565b005b3480156105e657600080fd5b5061060160048036038101906105fc91906135f0565b61194a565b005b34801561060f57600080fd5b5061062a600480360381019061062591906134fd565b611af2565b005b34801561063857600080fd5b50610653600480360381019061064e91906136f3565b611b4e565b6040516106609190613d02565b60405180910390f35b34801561067557600080fd5b5061067e611bf5565b60405161068b9190614114565b60405180910390f35b3480156106a057600080fd5b506106bb60048036038101906106b69190613472565b611bfb565b6040516106c89190613ce7565b60405180910390f35b3480156106dd57600080fd5b506106f860048036038101906106f39190613449565b611c8f565b005b34801561070657600080fd5b5061070f611d87565b60405161071c9190614114565b60405180910390f35b60007f80ac58cd000000000000000000000000000000000000000000000000000000007bffffffffffffffffffffffffffffffffffffffffffffffffffffffff1916827bffffffffffffffffffffffffffffffffffffffffffffffffffffffff191614806107f057507f5b5e139f000000000000000000000000000000000000000000000000000000007bffffffffffffffffffffffffffffffffffffffffffffffffffffffff1916827bffffffffffffffffffffffffffffffffffffffffffffffffffffffff1916145b8061085857507f780e9d63000000000000000000000000000000000000000000000000000000007bffffffffffffffffffffffffffffffffffffffffffffffffffffffff1916827bffffffffffffffffffffffffffffffffffffffffffffffffffffffff1916145b80610868575061086782611dab565b5b9050919050565b60606001805461087e906144d3565b80601f01602080910402602001604051908101604052809291908181526020018280546108aa906144d3565b80156108f75780601f106108cc576101008083540402835291602001916108f7565b820191906000526020600020905b8154815290600101906020018083116108da57829003601f168201915b5050505050905090565b600061090c82611e15565b61094b576040517f08c379a0000000000000000000000000000000000000000000000000000000008152600401610942906140b4565b60405180910390fd5b6005600083815260200190815260200160002060009054906101000a900473ffffffffffffffffffffffffffffffffffffffff169050919050565b60006109918261134d565b90508073ffffffffffffffffffffffffffffffffffffffff168373ffffffffffffffffffffffffffffffffffffffff161415610a02576040517f08c379a00000000000000000000000000000000000000000000000000000000081526004016109f990613f94565b60405180910390fd5b8073ffffffffffffffffffffffffffffffffffffffff16610a21611e22565b73ffffffffffffffffffffffffffffffffffffffff161480610a505750610a4f81610a4a611e22565b611bfb565b5b610a8f576040517f08c379a0000000000000000000000000000000000000000000000000000000008152600401610a8690613e54565b60405180910390fd5b610a9a838383611e2a565b505050565b60008054905090565b610ab3838383611edc565b505050565b60026008541415610afe576040517f08c379a0000000000000000000000000000000000000000000000000000000008152600401610af590614074565b60405180910390fd5b60026008819055507f000000000000000000000000000000000000000000000000000000000000000081610b30610a9f565b610b3a91906142c4565b1115610b7b576040517f08c379a0000000000000000000000000000000000000000000000000000000008152600401610b7290613e94565b60405180910390fd5b7f0000000000000000000000000000000000000000000000000000000000000000811115610bde576040517f08c379a0000000000000000000000000000000000000000000000000000000008152600401610bd590613e14565b60405180910390fd5b610bef610be9611e22565b82612495565b610c2e6040518060400160405280601881526020017f2573204e4654732068617665206265656e206d696e7465640000000000000000815250826124b3565b600160088190555050565b6000610c4483611363565b8210610c85576040517f08c379a0000000000000000000000000000000000000000000000000000000008152600401610c7c90613d54565b60405180910390fd5b6000610c8f610a9f565b905060008060005b83811015610df5576000600360008381526020019081526020016000206040518060400160405290816000820160009054906101000a900473ffffffffffffffffffffffffffffffffffffffff1673ffffffffffffffffffffffffffffffffffffffff1673ffffffffffffffffffffffffffffffffffffffff1681526020016000820160149054906101000a900467ffffffffffffffff1667ffffffffffffffff1667ffffffffffffffff16815250509050600073ffffffffffffffffffffffffffffffffffffffff16816000015173ffffffffffffffffffffffffffffffffffffffff1614610d8957806000015192505b8773ffffffffffffffffffffffffffffffffffffffff168373ffffffffffffffffffffffffffffffffffffffff161415610de15786841415610dd2578195505050505050610e31565b8380610ddd90614536565b9450505b508080610ded90614536565b915050610c97565b506040517f08c379a0000000000000000000000000000000000000000000000000000000008152600401610e2890614054565b60405180910390fd5b92915050565b610e3f611e22565b73ffffffffffffffffffffffffffffffffffffffff16610e5d6114f8565b73ffffffffffffffffffffffffffffffffffffffff1614610eb3576040517f08c379a0000000000000000000000000000000000000000000000000000000008152600401610eaa90613ef4565b60405180910390fd5b7f000000000000000000000000000000000000000000000000000000000000000081610edd610a9f565b610ee791906142c4565b1115610f28576040517f08c379a0000000000000000000000000000000000000000000000000000000008152600401610f1f90614034565b60405180910390fd5b60007f000000000000000000000000000000000000000000000000000000000000000082610f56919061457f565b14610f96576040517f08c379a0000000000000000000000000000000000000000000000000000000008152600401610f8d90613db4565b60405180910390fd5b60007f000000000000000000000000000000000000000000000000000000000000000082610fc4919061431a565b905060005b8181101561100e57610ffb337f0000000000000000000000000000000000000000000000000000000000000000612495565b808061100690614536565b915050610fc9565b505050565b3373ffffffffffffffffffffffffffffffffffffffff163273ffffffffffffffffffffffffffffffffffffffff1614611081576040517f08c379a000000000000000000000000000000000000000000000000000000000815260040161107890613e34565b60405180910390fd5b6000600c60000160089054906101000a900467ffffffffffffffff1667ffffffffffffffff16905060008114156110ed576040517f08c379a00000000000000000000000000000000000000000000000000000000081526004016110e490613f74565b60405180910390fd5b6000600b60003373ffffffffffffffffffffffffffffffffffffffff1673ffffffffffffffffffffffffffffffffffffffff168152602001908152602001600020541161116f576040517f08c379a000000000000000000000000000000000000000000000000000000000815260040161116690613eb4565b60405180910390fd5b7f0000000000000000000000000000000000000000000000000000000000000000600161119a610a9f565b6111a491906142c4565b11156111e5576040517f08c379a00000000000000000000000000000000000000000000000000000000081526004016111dc90613e94565b60405180910390fd5b600b60003373ffffffffffffffffffffffffffffffffffffffff1673ffffffffffffffffffffffffffffffffffffffff1681526020019081526020016000206000815480929190611235906144a9565b9190505550611245336001612495565b50565b61126383838360405180602001604052806000815250611af2565b505050565b6000611272610a9f565b82106112b3576040517f08c379a00000000000000000000000000000000000000000000000000000000081526004016112aa90613dd4565b60405180910390fd5b819050919050565b6112c3611e22565b73ffffffffffffffffffffffffffffffffffffffff166112e16114f8565b73ffffffffffffffffffffffffffffffffffffffff1614611337576040517f08c379a000000000000000000000000000000000000000000000000000000000815260040161132e90613ef4565b60405180910390fd5b8181600a9190611348929190613125565b505050565b60006113588261254f565b600001519050919050565b60008073ffffffffffffffffffffffffffffffffffffffff168273ffffffffffffffffffffffffffffffffffffffff1614156113d4576040517f08c379a00000000000000000000000000000000000000000000000000000000081526004016113cb90613e74565b60405180910390fd5b600460008373ffffffffffffffffffffffffffffffffffffffff1673ffffffffffffffffffffffffffffffffffffffff16815260200190815260200160002060000160009054906101000a90046fffffffffffffffffffffffffffffffff166fffffffffffffffffffffffffffffffff169050919050565b611454611e22565b73ffffffffffffffffffffffffffffffffffffffff166114726114f8565b73ffffffffffffffffffffffffffffffffffffffff16146114c8576040517f08c379a00000000000000000000000000000000000000000000000000000000081526004016114bf90613ef4565b60405180910390fd5b6114d26000612752565b565b7f000000000000000000000000000000000000000000000000000000000000000081565b6000600960009054906101000a900473ffffffffffffffffffffffffffffffffffffffff16905090565b600c8060000160009054906101000a900463ffffffff16908060000160049054906101000a900463ffffffff16908060000160089054906101000a900467ffffffffffffffff16908060000160109054906101000a900467ffffffffffffffff16908060000160189054906101000a900463ffffffff16905085565b6060600280546115ad906144d3565b80601f01602080910402602001604051908101604052809291908181526020018280546115d9906144d3565b80156116265780601f106115fb57610100808354040283529160200191611626565b820191906000526020600020905b81548152906001019060200180831161160957829003601f168201915b5050505050905090565b611638611e22565b73ffffffffffffffffffffffffffffffffffffffff168273ffffffffffffffffffffffffffffffffffffffff1614156116a6576040517f08c379a000000000000000000000000000000000000000000000000000000000815260040161169d90613f34565b60405180910390fd5b80600660006116b3611e22565b73ffffffffffffffffffffffffffffffffffffffff1673ffffffffffffffffffffffffffffffffffffffff16815260200190815260200160002060008473ffffffffffffffffffffffffffffffffffffffff1673ffffffffffffffffffffffffffffffffffffffff16815260200190815260200160002060006101000a81548160ff0219169083151502179055508173ffffffffffffffffffffffffffffffffffffffff16611760611e22565b73ffffffffffffffffffffffffffffffffffffffff167f17307eab39ab6107e8899845ad3d59bd9653f200f220920489ca2b5937696c31836040516117a59190613ce7565b60405180910390a35050565b600b6020528060005260406000206000915090505481565b6117d1611e22565b73ffffffffffffffffffffffffffffffffffffffff166117ef6114f8565b73ffffffffffffffffffffffffffffffffffffffff1614611845576040517f08c379a000000000000000000000000000000000000000000000000000000000815260040161183c90613ef4565b60405180910390fd5b6002600854141561188b576040517f08c379a000000000000000000000000000000000000000000000000000000000815260040161188290614074565b60405180910390fd5b600260088190555060003373ffffffffffffffffffffffffffffffffffffffff16476040516118b990613c6b565b60006040518083038185875af1925050503d80600081146118f6576040519150601f19603f3d011682016040523d82523d6000602084013e6118fb565b606091505b505090508061193f576040517f08c379a000000000000000000000000000000000000000000000000000000000815260040161193690613fb4565b60405180910390fd5b506001600881905550565b611952611e22565b73ffffffffffffffffffffffffffffffffffffffff166119706114f8565b73ffffffffffffffffffffffffffffffffffffffff16146119c6576040517f08c379a00000000000000000000000000000000000000000000000000000000081526004016119bd90613ef4565b60405180910390fd5b8051825114611a0a576040517f08c379a0000000000000000000000000000000000000000000000000000000008152600401611a01906140f4565b60405180910390fd5b60005b8251811015611aed57818181518110611a4f577f4e487b7100000000000000000000000000000000000000000000000000000000600052603260045260246000fd5b6020026020010151600b6000858481518110611a94577f4e487b7100000000000000000000000000000000000000000000000000000000600052603260045260246000fd5b602002602001015173ffffffffffffffffffffffffffffffffffffffff1673ffffffffffffffffffffffffffffffffffffffff168152602001908152602001600020819055508080611ae590614536565b915050611a0d565b505050565b611afd848484611edc565b611b0984848484612818565b611b48576040517f08c379a0000000000000000000000000000000000000000000000000000000008152600401611b3f90613fd4565b60405180910390fd5b50505050565b6060611b5982611e15565b611b98576040517f08c379a0000000000000000000000000000000000000000000000000000000008152600401611b8f90613f14565b60405180910390fd5b6000611ba26129af565b90506000815111611bc25760405180602001604052806000815250611bed565b80611bcc84612a41565b604051602001611bdd929190613c47565b6040516020818303038152906040525b915050919050565b60075481565b6000600660008473ffffffffffffffffffffffffffffffffffffffff1673ffffffffffffffffffffffffffffffffffffffff16815260200190815260200160002060008373ffffffffffffffffffffffffffffffffffffffff1673ffffffffffffffffffffffffffffffffffffffff16815260200190815260200160002060009054906101000a900460ff16905092915050565b611c97611e22565b73ffffffffffffffffffffffffffffffffffffffff16611cb56114f8565b73ffffffffffffffffffffffffffffffffffffffff1614611d0b576040517f08c379a0000000000000000000000000000000000000000000000000000000008152600401611d0290613ef4565b60405180910390fd5b600073ffffffffffffffffffffffffffffffffffffffff168173ffffffffffffffffffffffffffffffffffffffff161415611d7b576040517f08c379a0000000000000000000000000000000000000000000000000000000008152600401611d7290613d74565b60405180910390fd5b611d8481612752565b50565b7f000000000000000000000000000000000000000000000000000000000000000081565b60007f01ffc9a7000000000000000000000000000000000000000000000000000000007bffffffffffffffffffffffffffffffffffffffffffffffffffffffff1916827bffffffffffffffffffffffffffffffffffffffffffffffffffffffff1916149050919050565b6000805482109050919050565b600033905090565b826005600084815260200190815260200160002060006101000a81548173ffffffffffffffffffffffffffffffffffffffff021916908373ffffffffffffffffffffffffffffffffffffffff160217905550818373ffffffffffffffffffffffffffffffffffffffff168273ffffffffffffffffffffffffffffffffffffffff167f8c5be1e5ebec7d5bd14f71427d1e84f3dd0314c0f7b2291e5b200ac8c7c3b92560405160405180910390a4505050565b6000611ee78261254f565b90506000816000015173ffffffffffffffffffffffffffffffffffffffff16611f0e611e22565b73ffffffffffffffffffffffffffffffffffffffff161480611f6a5750611f33611e22565b73ffffffffffffffffffffffffffffffffffffffff16611f5284610901565b73ffffffffffffffffffffffffffffffffffffffff16145b80611f865750611f858260000151611f80611e22565b611bfb565b5b905080611fc8576040517f08c379a0000000000000000000000000000000000000000000000000000000008152600401611fbf90613f54565b60405180910390fd5b8473ffffffffffffffffffffffffffffffffffffffff16826000015173ffffffffffffffffffffffffffffffffffffffff161461203a576040517f08c379a000000000000000000000000000000000000000000000000000000000815260040161203190613ed4565b60405180910390fd5b600073ffffffffffffffffffffffffffffffffffffffff168473ffffffffffffffffffffffffffffffffffffffff1614156120aa576040517f08c379a00000000000000000000000000000000000000000000000000000000081526004016120a190613df4565b60405180910390fd5b6120b78585856001612bee565b6120c76000848460000151611e2a565b6001600460008773ffffffffffffffffffffffffffffffffffffffff1673ffffffffffffffffffffffffffffffffffffffff16815260200190815260200160002060000160008282829054906101000a90046fffffffffffffffffffffffffffffffff16612135919061434b565b92506101000a8154816fffffffffffffffffffffffffffffffff02191690836fffffffffffffffffffffffffffffffff1602179055506001600460008673ffffffffffffffffffffffffffffffffffffffff1673ffffffffffffffffffffffffffffffffffffffff16815260200190815260200160002060000160008282829054906101000a90046fffffffffffffffffffffffffffffffff166121d9919061427e565b92506101000a8154816fffffffffffffffffffffffffffffffff02191690836fffffffffffffffffffffffffffffffff16021790555060405180604001604052808573ffffffffffffffffffffffffffffffffffffffff1681526020014267ffffffffffffffff168152506003600085815260200190815260200160002060008201518160000160006101000a81548173ffffffffffffffffffffffffffffffffffffffff021916908373ffffffffffffffffffffffffffffffffffffffff16021790555060208201518160000160146101000a81548167ffffffffffffffff021916908367ffffffffffffffff16021790555090505060006001846122df91906142c4565b9050600073ffffffffffffffffffffffffffffffffffffffff166003600083815260200190815260200160002060000160009054906101000a900473ffffffffffffffffffffffffffffffffffffffff1673ffffffffffffffffffffffffffffffffffffffff1614156124255761235581611e15565b15612424576040518060400160405280846000015173ffffffffffffffffffffffffffffffffffffffff168152602001846020015167ffffffffffffffff168152506003600083815260200190815260200160002060008201518160000160006101000a81548173ffffffffffffffffffffffffffffffffffffffff021916908373ffffffffffffffffffffffffffffffffffffffff16021790555060208201518160000160146101000a81548167ffffffffffffffff021916908367ffffffffffffffff1602179055509050505b5b838573ffffffffffffffffffffffffffffffffffffffff168773ffffffffffffffffffffffffffffffffffffffff167fddf252ad1be2c89b69c2b068fc378daa952ba7f163c4a11628f55a4df523b3ef60405160405180910390a461248d8686866001612bf4565b505050505050565b6124af828260405180602001604052806000815250612bfa565b5050565b61254b82826040516024016124c9929190613d24565b6040516020818303038152906040527f9710a9d0000000000000000000000000000000000000000000000000000000007bffffffffffffffffffffffffffffffffffffffffffffffffffffffff19166020820180517bffffffffffffffffffffffffffffffffffffffffffffffffffffffff83818316178352505050506130d9565b5050565b6125576131ab565b61256082611e15565b61259f576040517f08c379a000000000000000000000000000000000000000000000000000000000815260040161259690613d94565b60405180910390fd5b60007f000000000000000000000000000000000000000000000000000000000000000083106126035760017f0000000000000000000000000000000000000000000000000000000000000000846125f6919061437f565b61260091906142c4565b90505b60008390505b818110612711576000600360008381526020019081526020016000206040518060400160405290816000820160009054906101000a900473ffffffffffffffffffffffffffffffffffffffff1673ffffffffffffffffffffffffffffffffffffffff1673ffffffffffffffffffffffffffffffffffffffff1681526020016000820160149054906101000a900467ffffffffffffffff1667ffffffffffffffff1667ffffffffffffffff16815250509050600073ffffffffffffffffffffffffffffffffffffffff16816000015173ffffffffffffffffffffffffffffffffffffffff16146126fd5780935050505061274d565b508080612709906144a9565b915050612609565b506040517f08c379a000000000000000000000000000000000000000000000000000000000815260040161274490614094565b60405180910390fd5b919050565b6000600960009054906101000a900473ffffffffffffffffffffffffffffffffffffffff16905081600960006101000a81548173ffffffffffffffffffffffffffffffffffffffff021916908373ffffffffffffffffffffffffffffffffffffffff1602179055508173ffffffffffffffffffffffffffffffffffffffff168173ffffffffffffffffffffffffffffffffffffffff167f8be0079c531659141344cd1fd0a4f28419497f9722a3daafe3b4186f6b6457e060405160405180910390a35050565b60006128398473ffffffffffffffffffffffffffffffffffffffff16613102565b156129a2578373ffffffffffffffffffffffffffffffffffffffff1663150b7a02612862611e22565b8786866040518563ffffffff1660e01b81526004016128849493929190613c9b565b602060405180830381600087803b15801561289e57600080fd5b505af19250505080156128cf57506040513d601f19601f820116820180604052508101906128cc9190613685565b60015b612952573d80600081146128ff576040519150601f19603f3d011682016040523d82523d6000602084013e612904565b606091505b5060008151141561294a576040517f08c379a000000000000000000000000000000000000000000000000000000000815260040161294190613fd4565b60405180910390fd5b805181602001fd5b63150b7a0260e01b7bffffffffffffffffffffffffffffffffffffffffffffffffffffffff1916817bffffffffffffffffffffffffffffffffffffffffffffffffffffffff1916149150506129a7565b600190505b949350505050565b6060600a80546129be906144d3565b80601f01602080910402602001604051908101604052809291908181526020018280546129ea906144d3565b8015612a375780601f10612a0c57610100808354040283529160200191612a37565b820191906000526020600020905b815481529060010190602001808311612a1a57829003601f168201915b5050505050905090565b60606000821415612a89576040518060400160405280600181526020017f30000000000000000000000000000000000000000000000000000000000000008152509050612be9565b600082905060005b60008214612abb578080612aa490614536565b915050600a82612ab4919061431a565b9150612a91565b60008167ffffffffffffffff811115612afd577f4e487b7100000000000000000000000000000000000000000000000000000000600052604160045260246000fd5b6040519080825280601f01601f191660200182016040528015612b2f5781602001600182028036833780820191505090505b5090505b60008514612be257600182612b48919061437f565b9150600a85612b57919061457f565b6030612b6391906142c4565b60f81b818381518110612b9f577f4e487b7100000000000000000000000000000000000000000000000000000000600052603260045260246000fd5b60200101907effffffffffffffffffffffffffffffffffffffffffffffffffffffffffffff1916908160001a905350600a85612bdb919061431a565b9450612b33565b8093505050505b919050565b50505050565b50505050565b600080549050600073ffffffffffffffffffffffffffffffffffffffff168473ffffffffffffffffffffffffffffffffffffffff161415612c70576040517f08c379a0000000000000000000000000000000000000000000000000000000008152600401612c6790614014565b60405180910390fd5b612c7981611e15565b15612cb9576040517f08c379a0000000000000000000000000000000000000000000000000000000008152600401612cb090613ff4565b60405180910390fd5b7f0000000000000000000000000000000000000000000000000000000000000000831115612d1c576040517f08c379a0000000000000000000000000000000000000000000000000000000008152600401612d13906140d4565b60405180910390fd5b612d296000858386612bee565b6000600460008673ffffffffffffffffffffffffffffffffffffffff1673ffffffffffffffffffffffffffffffffffffffff1681526020019081526020016000206040518060400160405290816000820160009054906101000a90046fffffffffffffffffffffffffffffffff166fffffffffffffffffffffffffffffffff166fffffffffffffffffffffffffffffffff1681526020016000820160109054906101000a90046fffffffffffffffffffffffffffffffff166fffffffffffffffffffffffffffffffff166fffffffffffffffffffffffffffffffff168152505090506040518060400160405280858360000151612e26919061427e565b6fffffffffffffffffffffffffffffffff168152602001858360200151612e4d919061427e565b6fffffffffffffffffffffffffffffffff16815250600460008773ffffffffffffffffffffffffffffffffffffffff1673ffffffffffffffffffffffffffffffffffffffff16815260200190815260200160002060008201518160000160006101000a8154816fffffffffffffffffffffffffffffffff02191690836fffffffffffffffffffffffffffffffff16021790555060208201518160000160106101000a8154816fffffffffffffffffffffffffffffffff02191690836fffffffffffffffffffffffffffffffff16021790555090505060405180604001604052808673ffffffffffffffffffffffffffffffffffffffff1681526020014267ffffffffffffffff168152506003600084815260200190815260200160002060008201518160000160006101000a81548173ffffffffffffffffffffffffffffffffffffffff021916908373ffffffffffffffffffffffffffffffffffffffff16021790555060208201518160000160146101000a81548167ffffffffffffffff021916908367ffffffffffffffff160217905550905050600082905060005b858110156130bc57818773ffffffffffffffffffffffffffffffffffffffff16600073ffffffffffffffffffffffffffffffffffffffff167fddf252ad1be2c89b69c2b068fc378daa952ba7f163c4a11628f55a4df523b3ef60405160405180910390a461305c6000888488612818565b61309b576040517f08c379a000000000000000000000000000000000000000000000000000000000815260040161309290613fd4565b60405180910390fd5b81806130a690614536565b92505080806130b490614536565b915050612feb565b50806000819055506130d16000878588612bf4565b505050505050565b60008151905060006a636f6e736f6c652e6c6f679050602083016000808483855afa5050505050565b6000808273ffffffffffffffffffffffffffffffffffffffff163b119050919050565b828054613131906144d3565b90600052602060002090601f016020900481019282613153576000855561319a565b82601f1061316c57803560ff191683800117855561319a565b8280016001018555821561319a579182015b8281111561319957823582559160200191906001019061317e565b5b5090506131a791906131e5565b5090565b6040518060400160405280600073ffffffffffffffffffffffffffffffffffffffff168152602001600067ffffffffffffffff1681525090565b5b808211156131fe5760008160009055506001016131e6565b5090565b6000613215613210846141a7565b614182565b9050808382526020820190508285602086028201111561323457600080fd5b60005b85811015613264578161324a8882613318565b845260208401935060208301925050600181019050613237565b5050509392505050565b600061328161327c846141d3565b614182565b905080838252602082019050828560208602820111156132a057600080fd5b60005b858110156132d057816132b68882613434565b8452602084019350602083019250506001810190506132a3565b5050509392505050565b60006132ed6132e8846141ff565b614182565b90508281526020810184848401111561330557600080fd5b613310848285614467565b509392505050565b60008135905061332781614e6c565b92915050565b600082601f83011261333e57600080fd5b813561334e848260208601613202565b91505092915050565b600082601f83011261336857600080fd5b813561337884826020860161326e565b91505092915050565b60008135905061339081614e83565b92915050565b6000813590506133a581614e9a565b92915050565b6000815190506133ba81614e9a565b92915050565b600082601f8301126133d157600080fd5b81356133e18482602086016132da565b91505092915050565b60008083601f8401126133fc57600080fd5b8235905067ffffffffffffffff81111561341557600080fd5b60208301915083600182028301111561342d57600080fd5b9250929050565b60008135905061344381614eb1565b92915050565b60006020828403121561345b57600080fd5b600061346984828501613318565b91505092915050565b6000806040838503121561348557600080fd5b600061349385828601613318565b92505060206134a485828601613318565b9150509250929050565b6000806000606084860312156134c357600080fd5b60006134d186828701613318565b93505060206134e286828701613318565b92505060406134f386828701613434565b9150509250925092565b6000806000806080858703121561351357600080fd5b600061352187828801613318565b945050602061353287828801613318565b935050604061354387828801613434565b925050606085013567ffffffffffffffff81111561356057600080fd5b61356c878288016133c0565b91505092959194509250565b6000806040838503121561358b57600080fd5b600061359985828601613318565b92505060206135aa85828601613381565b9150509250929050565b600080604083850312156135c757600080fd5b60006135d585828601613318565b92505060206135e685828601613434565b9150509250929050565b6000806040838503121561360357600080fd5b600083013567ffffffffffffffff81111561361d57600080fd5b6136298582860161332d565b925050602083013567ffffffffffffffff81111561364657600080fd5b61365285828601613357565b9150509250929050565b60006020828403121561366e57600080fd5b600061367c84828501613396565b91505092915050565b60006020828403121561369757600080fd5b60006136a5848285016133ab565b91505092915050565b600080602083850312156136c157600080fd5b600083013567ffffffffffffffff8111156136db57600080fd5b6136e7858286016133ea565b92509250509250929050565b60006020828403121561370557600080fd5b600061371384828501613434565b91505092915050565b613725816143b3565b82525050565b613734816143c5565b82525050565b600061374582614230565b61374f8185614246565b935061375f818560208601614476565b6137688161466c565b840191505092915050565b600061377e8261423b565b6137888185614262565b9350613798818560208601614476565b6137a18161466c565b840191505092915050565b60006137b78261423b565b6137c18185614273565b93506137d1818560208601614476565b80840191505092915050565b60006137ea602283614262565b91506137f58261467d565b604082019050919050565b600061380d602683614262565b9150613818826146cc565b604082019050919050565b6000613830602a83614262565b915061383b8261471b565b604082019050919050565b6000613853602c83614262565b915061385e8261476a565b604082019050919050565b6000613876602383614262565b9150613881826147b9565b604082019050919050565b6000613899602583614262565b91506138a482614808565b604082019050919050565b60006138bc602383614262565b91506138c782614857565b604082019050919050565b60006138df601e83614262565b91506138ea826148a6565b602082019050919050565b6000613902603983614262565b915061390d826148cf565b604082019050919050565b6000613925602b83614262565b91506139308261491e565b604082019050919050565b6000613948601283614262565b91506139538261496d565b602082019050919050565b600061396b601f83614262565b915061397682614996565b602082019050919050565b600061398e602683614262565b9150613999826149bf565b604082019050919050565b60006139b1602083614262565b91506139bc82614a0e565b602082019050919050565b60006139d4602f83614262565b91506139df82614a37565b604082019050919050565b60006139f7601a83614262565b9150613a0282614a86565b602082019050919050565b6000613a1a603283614262565b9150613a2582614aaf565b604082019050919050565b6000613a3d602083614262565b9150613a4882614afe565b602082019050919050565b6000613a60602283614262565b9150613a6b82614b27565b604082019050919050565b6000613a83600083614257565b9150613a8e82614b76565b600082019050919050565b6000613aa6601083614262565b9150613ab182614b79565b602082019050919050565b6000613ac9603383614262565b9150613ad482614ba2565b604082019050919050565b6000613aec601d83614262565b9150613af782614bf1565b602082019050919050565b6000613b0f602183614262565b9150613b1a82614c1a565b604082019050919050565b6000613b32602783614262565b9150613b3d82614c69565b604082019050919050565b6000613b55602e83614262565b9150613b6082614cb8565b604082019050919050565b6000613b78601f83614262565b9150613b8382614d07565b602082019050919050565b6000613b9b602f83614262565b9150613ba682614d30565b604082019050919050565b6000613bbe602d83614262565b9150613bc982614d7f565b604082019050919050565b6000613be1602283614262565b9150613bec82614dce565b604082019050919050565b6000613c04602883614262565b9150613c0f82614e1d565b604082019050919050565b613c2381614439565b82525050565b613c3281614443565b82525050565b613c4181614453565b82525050565b6000613c5382856137ac565b9150613c5f82846137ac565b91508190509392505050565b6000613c7682613a76565b9150819050919050565b6000602082019050613c95600083018461371c565b92915050565b6000608082019050613cb0600083018761371c565b613cbd602083018661371c565b613cca6040830185613c1a565b8181036060830152613cdc818461373a565b905095945050505050565b6000602082019050613cfc600083018461372b565b92915050565b60006020820190508181036000830152613d1c8184613773565b905092915050565b60006040820190508181036000830152613d3e8185613773565b9050613d4d6020830184613c1a565b9392505050565b60006020820190508181036000830152613d6d816137dd565b9050919050565b60006020820190508181036000830152613d8d81613800565b9050919050565b60006020820190508181036000830152613dad81613823565b9050919050565b60006020820190508181036000830152613dcd81613846565b9050919050565b60006020820190508181036000830152613ded81613869565b9050919050565b60006020820190508181036000830152613e0d8161388c565b9050919050565b60006020820190508181036000830152613e2d816138af565b9050919050565b60006020820190508181036000830152613e4d816138d2565b9050919050565b60006020820190508181036000830152613e6d816138f5565b9050919050565b60006020820190508181036000830152613e8d81613918565b9050919050565b60006020820190508181036000830152613ead8161393b565b9050919050565b60006020820190508181036000830152613ecd8161395e565b9050919050565b60006020820190508181036000830152613eed81613981565b9050919050565b60006020820190508181036000830152613f0d816139a4565b9050919050565b60006020820190508181036000830152613f2d816139c7565b9050919050565b60006020820190508181036000830152613f4d816139ea565b9050919050565b60006020820190508181036000830152613f6d81613a0d565b9050919050565b60006020820190508181036000830152613f8d81613a30565b9050919050565b60006020820190508181036000830152613fad81613a53565b9050919050565b60006020820190508181036000830152613fcd81613a99565b9050919050565b60006020820190508181036000830152613fed81613abc565b9050919050565b6000602082019050818103600083015261400d81613adf565b9050919050565b6000602082019050818103600083015261402d81613b02565b9050919050565b6000602082019050818103600083015261404d81613b25565b9050919050565b6000602082019050818103600083015261406d81613b48565b9050919050565b6000602082019050818103600083015261408d81613b6b565b9050919050565b600060208201905081810360008301526140ad81613b8e565b9050919050565b600060208201905081810360008301526140cd81613bb1565b9050919050565b600060208201905081810360008301526140ed81613bd4565b9050919050565b6000602082019050818103600083015261410d81613bf7565b9050919050565b60006020820190506141296000830184613c1a565b92915050565b600060a0820190506141446000830188613c29565b6141516020830187613c29565b61415e6040830186613c38565b61416b6060830185613c38565b6141786080830184613c29565b9695505050505050565b600061418c61419d565b90506141988282614505565b919050565b6000604051905090565b600067ffffffffffffffff8211156141c2576141c161463d565b5b602082029050602081019050919050565b600067ffffffffffffffff8211156141ee576141ed61463d565b5b602082029050602081019050919050565b600067ffffffffffffffff82111561421a5761421961463d565b5b6142238261466c565b9050602081019050919050565b600081519050919050565b600081519050919050565b600082825260208201905092915050565b600081905092915050565b600082825260208201905092915050565b600081905092915050565b6000614289826143fd565b9150614294836143fd565b9250826fffffffffffffffffffffffffffffffff038211156142b9576142b86145b0565b5b828201905092915050565b60006142cf82614439565b91506142da83614439565b9250827fffffffffffffffffffffffffffffffffffffffffffffffffffffffffffffffff0382111561430f5761430e6145b0565b5b828201905092915050565b600061432582614439565b915061433083614439565b9250826143405761433f6145df565b5b828204905092915050565b6000614356826143fd565b9150614361836143fd565b925082821015614374576143736145b0565b5b828203905092915050565b600061438a82614439565b915061439583614439565b9250828210156143a8576143a76145b0565b5b828203905092915050565b60006143be82614419565b9050919050565b60008115159050919050565b60007fffffffff0000000000000000000000000000000000000000000000000000000082169050919050565b60006fffffffffffffffffffffffffffffffff82169050919050565b600073ffffffffffffffffffffffffffffffffffffffff82169050919050565b6000819050919050565b600063ffffffff82169050919050565b600067ffffffffffffffff82169050919050565b82818337600083830152505050565b60005b83811015614494578082015181840152602081019050614479565b838111156144a3576000848401525b50505050565b60006144b482614439565b915060008214156144c8576144c76145b0565b5b600182039050919050565b600060028204905060018216806144eb57607f821691505b602082108114156144ff576144fe61460e565b5b50919050565b61450e8261466c565b810181811067ffffffffffffffff8211171561452d5761452c61463d565b5b80604052505050565b600061454182614439565b91507fffffffffffffffffffffffffffffffffffffffffffffffffffffffffffffffff821415614574576145736145b0565b5b600182019050919050565b600061458a82614439565b915061459583614439565b9250826145a5576145a46145df565b5b828206905092915050565b7f4e487b7100000000000000000000000000000000000000000000000000000000600052601160045260246000fd5b7f4e487b7100000000000000000000000000000000000000000000000000000000600052601260045260246000fd5b7f4e487b7100000000000000000000000000000000000000000000000000000000600052602260045260246000fd5b7f4e487b7100000000000000000000000000000000000000000000000000000000600052604160045260246000fd5b6000601f19601f8301169050919050565b7f455243373231413a206f776e657220696e646578206f7574206f6620626f756e60008201527f6473000000000000000000000000000000000000000000000000000000000000602082015250565b7f4f776e61626c653a206e6577206f776e657220697320746865207a65726f206160008201527f6464726573730000000000000000000000000000000000000000000000000000602082015250565b7f455243373231413a206f776e657220717565727920666f72206e6f6e6578697360008201527f74656e7420746f6b656e00000000000000000000000000000000000000000000602082015250565b7f63616e206f6e6c79206d696e742061206d756c7469706c65206f66207468652060008201527f6d6178426174636853697a650000000000000000000000000000000000000000602082015250565b7f455243373231413a20676c6f62616c20696e646578206f7574206f6620626f7560008201527f6e64730000000000000000000000000000000000000000000000000000000000602082015250565b7f455243373231413a207472616e7366657220746f20746865207a65726f20616460008201527f6472657373000000000000000000000000000000000000000000000000000000602082015250565b7f53746f70206d696e74696e6720746f6f206d616e792c2067726565647920667560008201527f636b2e0000000000000000000000000000000000000000000000000000000000602082015250565b7f5468652063616c6c657220697320616e6f7468657220636f6e74726163740000600082015250565b7f455243373231413a20617070726f76652063616c6c6572206973206e6f74206f60008201527f776e6572206e6f7220617070726f76656420666f7220616c6c00000000000000602082015250565b7f455243373231413a2062616c616e636520717565727920666f7220746865207a60008201527f65726f2061646472657373000000000000000000000000000000000000000000602082015250565b7f72656163686564206d617820737570706c790000000000000000000000000000600082015250565b7f6e6f7420656c696769626c6520666f7220616c6c6f776c697374206d696e7400600082015250565b7f455243373231413a207472616e736665722066726f6d20696e636f727265637460008201527f206f776e65720000000000000000000000000000000000000000000000000000602082015250565b7f4f776e61626c653a2063616c6c6572206973206e6f7420746865206f776e6572600082015250565b7f4552433732314d657461646174613a2055524920717565727920666f72206e6f60008201527f6e6578697374656e7420746f6b656e0000000000000000000000000000000000602082015250565b7f455243373231413a20617070726f766520746f2063616c6c6572000000000000600082015250565b7f455243373231413a207472616e736665722063616c6c6572206973206e6f742060008201527f6f776e6572206e6f7220617070726f7665640000000000000000000000000000602082015250565b7f616c6c6f776c6973742073616c6520686173206e6f7420626567756e20796574600082015250565b7f455243373231413a20617070726f76616c20746f2063757272656e74206f776e60008201527f6572000000000000000000000000000000000000000000000000000000000000602082015250565b50565b7f5472616e73666572206661696c65642e00000000000000000000000000000000600082015250565b7f455243373231413a207472616e7366657220746f206e6f6e204552433732315260008201527f6563656976657220696d706c656d656e74657200000000000000000000000000602082015250565b7f455243373231413a20746f6b656e20616c7265616479206d696e746564000000600082015250565b7f455243373231413a206d696e7420746f20746865207a65726f2061646472657360008201527f7300000000000000000000000000000000000000000000000000000000000000602082015250565b7f746f6f206d616e7920616c7265616479206d696e746564206265666f7265206460008201527f6576206d696e7400000000000000000000000000000000000000000000000000602082015250565b7f455243373231413a20756e61626c6520746f2067657420746f6b656e206f662060008201527f6f776e657220627920696e646578000000000000000000000000000000000000602082015250565b7f5265656e7472616e637947756172643a207265656e7472616e742063616c6c00600082015250565b7f455243373231413a20756e61626c6520746f2064657465726d696e652074686560008201527f206f776e6572206f6620746f6b656e0000000000000000000000000000000000602082015250565b7f455243373231413a20617070726f76656420717565727920666f72206e6f6e6560008201527f78697374656e7420746f6b656e00000000000000000000000000000000000000602082015250565b7f455243373231413a207175616e7469747920746f206d696e7420746f6f20686960008201527f6768000000000000000000000000000000000000000000000000000000000000602082015250565b7f61646472657373657320646f6573206e6f74206d61746368206e756d536c6f7460008201527f73206c656e677468000000000000000000000000000000000000000000000000602082015250565b614e75816143b3565b8114614e8057600080fd5b50565b614e8c816143c5565b8114614e9757600080fd5b50565b614ea3816143d1565b8114614eae57600080fd5b50565b614eba81614439565b8114614ec557600080fd5b5056fea2646970667358221220115f1dc46e06521e2444f5f9dd88b9346ed6d75210db0670b97cd96ea6cd9fe464736f6c63430008040033",
  "linkReferences": {},
  "deployedLinkReferences": {}
}